{
  "contractName": "Capsule",
  "abi": [
    {
      "inputs": [
        {
          "internalType": "address",
          "name": "_grantor",
          "type": "address"
        },
        {
          "internalType": "address",
          "name": "_beneficiary",
          "type": "address"
        },
        {
          "internalType": "uint256",
          "name": "_distributionDate",
          "type": "uint256"
        }
      ],
      "stateMutability": "nonpayable",
      "type": "constructor"
    },
    {
      "anonymous": false,
      "inputs": [
        {
          "indexed": false,
          "internalType": "address",
          "name": "from",
          "type": "address"
        },
        {
          "indexed": false,
          "internalType": "uint256",
          "name": "amount",
          "type": "uint256"
        }
      ],
      "name": "Received",
      "type": "event"
    },
    {
      "anonymous": false,
      "inputs": [
        {
          "indexed": false,
          "internalType": "address",
          "name": "to",
          "type": "address"
        },
        {
          "indexed": false,
          "internalType": "uint256",
          "name": "amount",
          "type": "uint256"
        }
      ],
      "name": "Withdrew",
      "type": "event"
    },
    {
      "anonymous": false,
      "inputs": [
        {
          "indexed": false,
          "internalType": "address",
          "name": "tokenContract",
          "type": "address"
        },
        {
          "indexed": false,
          "internalType": "address",
          "name": "to",
          "type": "address"
        },
        {
          "indexed": false,
          "internalType": "uint256",
          "name": "amount",
          "type": "uint256"
        }
      ],
      "name": "WithdrewTokens",
      "type": "event"
    },
    {
      "inputs": [],
      "name": "beneficiary",
      "outputs": [
        {
          "internalType": "address",
          "name": "",
          "type": "address"
        }
      ],
      "stateMutability": "view",
      "type": "function"
    },
    {
      "inputs": [],
      "name": "createdDate",
      "outputs": [
        {
          "internalType": "uint256",
          "name": "",
          "type": "uint256"
        }
      ],
      "stateMutability": "view",
      "type": "function"
    },
    {
      "inputs": [],
      "name": "distributionDate",
      "outputs": [
        {
          "internalType": "uint256",
          "name": "",
          "type": "uint256"
        }
      ],
      "stateMutability": "view",
      "type": "function"
    },
    {
      "inputs": [],
      "name": "grantor",
      "outputs": [
        {
          "internalType": "address",
          "name": "",
          "type": "address"
        }
      ],
      "stateMutability": "view",
      "type": "function"
    },
    {
      "stateMutability": "payable",
      "type": "receive"
    },
    {
      "inputs": [],
      "name": "withdraw",
      "outputs": [],
      "stateMutability": "nonpayable",
      "type": "function"
    },
    {
      "inputs": [
        {
          "internalType": "address",
          "name": "_tokenContract",
          "type": "address"
        }
      ],
      "name": "withdrawTokens",
      "outputs": [],
      "stateMutability": "nonpayable",
      "type": "function"
    },
    {
      "inputs": [],
      "name": "info",
      "outputs": [
        {
          "internalType": "address",
          "name": "",
          "type": "address"
        },
        {
          "internalType": "address",
          "name": "",
          "type": "address"
        },
        {
          "internalType": "uint256",
          "name": "",
          "type": "uint256"
        },
        {
          "internalType": "uint256",
          "name": "",
          "type": "uint256"
        },
        {
          "internalType": "uint256",
          "name": "",
          "type": "uint256"
        }
      ],
      "stateMutability": "view",
      "type": "function"
    }
  ],
  "bytecode": "0x608060405234801561001057600080fd5b506040516107d23803806107d28339818101604052606081101561003357600080fd5b81019080805190602001909291908051906020019092919080519060200190929190505050826000806101000a81548173ffffffffffffffffffffffffffffffffffffffff021916908373ffffffffffffffffffffffffffffffffffffffff16021790555081600160006101000a81548173ffffffffffffffffffffffffffffffffffffffff021916908373ffffffffffffffffffffffffffffffffffffffff16021790555080600281905550426003819055505050506106d9806100f96000396000f3fe6080604052600436106100745760003560e01c806344fbc8931161004e57806344fbc893146101a057806349df728c146101cb578063bab253b31461021c578063e34c8dbf1461025d576100d0565b8063370158ea146100d557806338af3eed146101485780633ccfd60b14610189576100d0565b366100d0577f88a5966d370b9919b20f3e2c13ff65706f196a4e32cc2c12bf57088f885258743334604051808373ffffffffffffffffffffffffffffffffffffffff1681526020018281526020019250505060405180910390a1005b600080fd5b3480156100e157600080fd5b506100ea610288565b604051808673ffffffffffffffffffffffffffffffffffffffff1681526020018573ffffffffffffffffffffffffffffffffffffffff1681526020018481526020018381526020018281526020019550505050505060405180910390f35b34801561015457600080fd5b5061015d6102ed565b604051808273ffffffffffffffffffffffffffffffffffffffff16815260200191505060405180910390f35b34801561019557600080fd5b5061019e610313565b005b3480156101ac57600080fd5b506101b561041a565b6040518082815260200191505060405180910390f35b3480156101d757600080fd5b5061021a600480360360208110156101ee57600080fd5b81019080803573ffffffffffffffffffffffffffffffffffffffff169060200190929190505050610420565b005b34801561022857600080fd5b50610231610679565b604051808273ffffffffffffffffffffffffffffffffffffffff16815260200191505060405180910390f35b34801561026957600080fd5b5061027261069d565b6040518082815260200191505060405180910390f35b60008060008060008060009054906101000a900473ffffffffffffffffffffffffffffffffffffffff16600160009054906101000a900473ffffffffffffffffffffffffffffffffffffffff1660025460035447945094509450945094509091929394565b600160009054906101000a900473ffffffffffffffffffffffffffffffffffffffff1681565b600160009054906101000a900473ffffffffffffffffffffffffffffffffffffffff1673ffffffffffffffffffffffffffffffffffffffff163373ffffffffffffffffffffffffffffffffffffffff161461036d57600080fd5b60025442101561037c57600080fd5b3373ffffffffffffffffffffffffffffffffffffffff166108fc479081150290604051600060405180830381858888f193505050501580156103c2573d6000803e3d6000fd5b507fb244b9a17ad633c6e83b7983ee04320484956a68ddbe96a0b70dfca1cf19d7233347604051808373ffffffffffffffffffffffffffffffffffffffff1681526020018281526020019250505060405180910390a1565b60035481565b600160009054906101000a900473ffffffffffffffffffffffffffffffffffffffff1673ffffffffffffffffffffffffffffffffffffffff163373ffffffffffffffffffffffffffffffffffffffff161461047a57600080fd5b60025442101561048957600080fd5b600081905060008173ffffffffffffffffffffffffffffffffffffffff166370a08231306040518263ffffffff1660e01b8152600401808273ffffffffffffffffffffffffffffffffffffffff16815260200191505060206040518083038186803b1580156104f757600080fd5b505afa15801561050b573d6000803e3d6000fd5b505050506040513d602081101561052157600080fd5b810190808051906020019092919050505090508173ffffffffffffffffffffffffffffffffffffffff1663a9059cbb60008054906101000a900473ffffffffffffffffffffffffffffffffffffffff16836040518363ffffffff1660e01b8152600401808373ffffffffffffffffffffffffffffffffffffffff16815260200182815260200192505050602060405180830381600087803b1580156105c557600080fd5b505af11580156105d9573d6000803e3d6000fd5b505050506040513d60208110156105ef57600080fd5b8101908080519060200190929190505050507fa04c965e7d289704527a948915777d68bb4530fb4b08aa935fb958c0b7901ab9833383604051808473ffffffffffffffffffffffffffffffffffffffff1681526020018373ffffffffffffffffffffffffffffffffffffffff168152602001828152602001935050505060405180910390a1505050565b60008054906101000a900473ffffffffffffffffffffffffffffffffffffffff1681565b6002548156fea2646970667358221220f67c2262a215f4ec154227d862024ceae6a736e09b8dbf962546c88a445f596264736f6c63430007040033",
  "immutableReferences": {},
  "source": "// SPDX-License-Identifier: MIT\npragma solidity >=0.6.0 <=0.7.4;\n\nimport \"./IERC20.sol\";\n\ncontract Capsule {\n    address public grantor;\n    address public beneficiary;\n    uint256 public distributionDate;\n    uint256 public createdDate;\n\n    modifier onlyBeneficiary {\n        require(msg.sender == beneficiary);\n        _;\n    }\n\n    constructor (address _grantor, address _beneficiary, uint256 _distributionDate) {\n        grantor = _grantor;\n        beneficiary = _beneficiary;\n        distributionDate = _distributionDate;\n        createdDate = block.timestamp;\n    }\n\n    receive () external payable {\n        emit Received(msg.sender, msg.value);\n    }\n\n    function withdraw() onlyBeneficiary public {\n        require(block.timestamp >= distributionDate);\n        msg.sender.transfer(address(this).balance);\n        emit Withdrew(msg.sender, address(this).balance);\n    }\n\n    function withdrawTokens(address _tokenContract) onlyBeneficiary public {\n        require(block.timestamp >= distributionDate);\n        IERC20 token = IERC20(_tokenContract);\n        uint256 tokenBalance = token.balanceOf(address(this));\n        token.transfer(grantor, tokenBalance);\n        emit WithdrewTokens(_tokenContract, msg.sender, tokenBalance);\n    }\n\n    function info() public view returns(address, address, uint256, uint256, uint256) {\n        return (grantor, beneficiary, distributionDate, createdDate, address(this).balance);\n    }\n\n    event Received(address from, uint256 amount);\n    event Withdrew(address to, uint256 amount);\n    event WithdrewTokens(address tokenContract, address to, uint256 amount);\n}\n",
  "sourcePath": "/Users/chasemanning/Documents/repositories/crypto-capsule/contracts/Capsule.sol",
  "compiler": {
    "name": "solc",
    "version": "0.7.4+commit.3f05b770.Emscripten.clang"
  },
  "schemaVersion": "3.3.3",
  "updatedAt": "2021-02-08T07:47:56.748Z",
  "devdoc": {
    "kind": "dev",
    "methods": {},
    "version": 1
  },
  "userdoc": {
    "kind": "user",
    "methods": {},
    "version": 1
  }
}