{
  "contractName": "CapsuleFactory",
  "abi": [
    {
      "anonymous": false,
      "inputs": [
        {
          "indexed": false,
          "internalType": "contract Capsule",
          "name": "capsule",
          "type": "address"
        },
        {
          "indexed": false,
          "internalType": "address",
          "name": "grantor",
          "type": "address"
        },
        {
          "indexed": false,
          "internalType": "address",
          "name": "beneficiary",
          "type": "address"
        },
        {
          "indexed": false,
          "internalType": "uint256",
          "name": "createdDate",
          "type": "uint256"
        },
        {
          "indexed": false,
          "internalType": "uint256",
          "name": "distributionDate",
          "type": "uint256"
        },
        {
          "indexed": false,
          "internalType": "uint256",
          "name": "amount",
          "type": "uint256"
        }
      ],
      "name": "Created",
      "type": "event"
    },
    {
      "stateMutability": "nonpayable",
      "type": "fallback"
    },
    {
      "inputs": [
        {
          "internalType": "address",
          "name": "_grantor",
          "type": "address"
        }
      ],
      "name": "getSentCapsules",
      "outputs": [
        {
          "internalType": "contract Capsule[]",
          "name": "",
          "type": "address[]"
        }
      ],
      "stateMutability": "view",
      "type": "function",
      "constant": true
    },
    {
      "inputs": [
        {
          "internalType": "address",
          "name": "_beneficiary",
          "type": "address"
        }
      ],
      "name": "getReceivedCapsules",
      "outputs": [
        {
          "internalType": "contract Capsule[]",
          "name": "",
          "type": "address[]"
        }
      ],
      "stateMutability": "view",
      "type": "function",
      "constant": true
    },
    {
      "inputs": [
        {
          "internalType": "address",
          "name": "_beneficiary",
          "type": "address"
        },
        {
          "internalType": "uint256",
          "name": "_distributionDate",
          "type": "uint256"
        }
      ],
      "name": "newCapsule",
      "outputs": [
        {
          "internalType": "contract Capsule",
          "name": "capsule",
          "type": "address"
        }
      ],
      "stateMutability": "payable",
      "type": "function",
      "payable": true
    }
  ],
  "bytecode": "0x608060405234801561001057600080fd5b50610e5e806100206000396000f3fe6080604052600436106100385760003560e01c80636a8674891461004b578063880aad75146100c3578063e24e3ffb1461016957610039565b5b34801561004557600080fd5b50600080fd5b6100976004803603604081101561006157600080fd5b81019080803573ffffffffffffffffffffffffffffffffffffffff1690602001909291908035906020019092919050505061020f565b604051808273ffffffffffffffffffffffffffffffffffffffff16815260200191505060405180910390f35b3480156100cf57600080fd5b50610112600480360360208110156100e657600080fd5b81019080803573ffffffffffffffffffffffffffffffffffffffff1690602001909291905050506104b0565b6040518080602001828103825283818151815260200191508051906020019060200280838360005b8381101561015557808201518184015260208101905061013a565b505050509050019250505060405180910390f35b34801561017557600080fd5b506101b86004803603602081101561018c57600080fd5b81019080803573ffffffffffffffffffffffffffffffffffffffff16906020019092919050505061057d565b6040518080602001828103825283818151815260200191508051906020019060200280838360005b838110156101fb5780820151818401526020810190506101e0565b505050509050019250505060405180910390f35b600033838360405161022090610649565b808473ffffffffffffffffffffffffffffffffffffffff1681526020018373ffffffffffffffffffffffffffffffffffffffff1681526020018281526020019350505050604051809103906000f080158015610280573d6000803e3d6000fd5b5090506000803373ffffffffffffffffffffffffffffffffffffffff1673ffffffffffffffffffffffffffffffffffffffff168152602001908152602001600020819080600181540180825580915050600190039060005260206000200160009091909190916101000a81548173ffffffffffffffffffffffffffffffffffffffff021916908373ffffffffffffffffffffffffffffffffffffffff160217905550600160008473ffffffffffffffffffffffffffffffffffffffff1673ffffffffffffffffffffffffffffffffffffffff168152602001908152602001600020819080600181540180825580915050600190039060005260206000200160009091909190916101000a81548173ffffffffffffffffffffffffffffffffffffffff021916908373ffffffffffffffffffffffffffffffffffffffff1602179055508073ffffffffffffffffffffffffffffffffffffffff166108fc349081150290604051600060405180830381858888f19350505050158015610408573d6000803e3d6000fd5b507f14d5db8c1f746c7adcbcd13cf8945dd2ac6ad58be52380b8c4933c876f76e1bf813385428634604051808773ffffffffffffffffffffffffffffffffffffffff1681526020018673ffffffffffffffffffffffffffffffffffffffff1681526020018573ffffffffffffffffffffffffffffffffffffffff168152602001848152602001838152602001828152602001965050505050505060405180910390a192915050565b6060600160008373ffffffffffffffffffffffffffffffffffffffff1673ffffffffffffffffffffffffffffffffffffffff16815260200190815260200160002080548060200260200160405190810160405280929190818152602001828054801561057157602002820191906000526020600020905b8160009054906101000a900473ffffffffffffffffffffffffffffffffffffffff1673ffffffffffffffffffffffffffffffffffffffff1681526020019060010190808311610527575b50505050509050919050565b60606000808373ffffffffffffffffffffffffffffffffffffffff1673ffffffffffffffffffffffffffffffffffffffff16815260200190815260200160002080548060200260200160405190810160405280929190818152602001828054801561063d57602002820191906000526020600020905b8160009054906101000a900473ffffffffffffffffffffffffffffffffffffffff1673ffffffffffffffffffffffffffffffffffffffff16815260200190600101908083116105f3575b50505050509050919050565b6107d2806106578339019056fe608060405234801561001057600080fd5b506040516107d23803806107d28339818101604052606081101561003357600080fd5b81019080805190602001909291908051906020019092919080519060200190929190505050826000806101000a81548173ffffffffffffffffffffffffffffffffffffffff021916908373ffffffffffffffffffffffffffffffffffffffff16021790555081600160006101000a81548173ffffffffffffffffffffffffffffffffffffffff021916908373ffffffffffffffffffffffffffffffffffffffff16021790555080600281905550426003819055505050506106d9806100f96000396000f3fe6080604052600436106100745760003560e01c806344fbc8931161004e57806344fbc893146101a057806349df728c146101cb578063bab253b31461021c578063e34c8dbf1461025d576100d0565b8063370158ea146100d557806338af3eed146101485780633ccfd60b14610189576100d0565b366100d0577f88a5966d370b9919b20f3e2c13ff65706f196a4e32cc2c12bf57088f885258743334604051808373ffffffffffffffffffffffffffffffffffffffff1681526020018281526020019250505060405180910390a1005b600080fd5b3480156100e157600080fd5b506100ea610288565b604051808673ffffffffffffffffffffffffffffffffffffffff1681526020018573ffffffffffffffffffffffffffffffffffffffff1681526020018481526020018381526020018281526020019550505050505060405180910390f35b34801561015457600080fd5b5061015d6102ed565b604051808273ffffffffffffffffffffffffffffffffffffffff16815260200191505060405180910390f35b34801561019557600080fd5b5061019e610313565b005b3480156101ac57600080fd5b506101b561041a565b6040518082815260200191505060405180910390f35b3480156101d757600080fd5b5061021a600480360360208110156101ee57600080fd5b81019080803573ffffffffffffffffffffffffffffffffffffffff169060200190929190505050610420565b005b34801561022857600080fd5b50610231610679565b604051808273ffffffffffffffffffffffffffffffffffffffff16815260200191505060405180910390f35b34801561026957600080fd5b5061027261069d565b6040518082815260200191505060405180910390f35b60008060008060008060009054906101000a900473ffffffffffffffffffffffffffffffffffffffff16600160009054906101000a900473ffffffffffffffffffffffffffffffffffffffff1660025460035447945094509450945094509091929394565b600160009054906101000a900473ffffffffffffffffffffffffffffffffffffffff1681565b600160009054906101000a900473ffffffffffffffffffffffffffffffffffffffff1673ffffffffffffffffffffffffffffffffffffffff163373ffffffffffffffffffffffffffffffffffffffff161461036d57600080fd5b60025442101561037c57600080fd5b3373ffffffffffffffffffffffffffffffffffffffff166108fc479081150290604051600060405180830381858888f193505050501580156103c2573d6000803e3d6000fd5b507fb244b9a17ad633c6e83b7983ee04320484956a68ddbe96a0b70dfca1cf19d7233347604051808373ffffffffffffffffffffffffffffffffffffffff1681526020018281526020019250505060405180910390a1565b60035481565b600160009054906101000a900473ffffffffffffffffffffffffffffffffffffffff1673ffffffffffffffffffffffffffffffffffffffff163373ffffffffffffffffffffffffffffffffffffffff161461047a57600080fd5b60025442101561048957600080fd5b600081905060008173ffffffffffffffffffffffffffffffffffffffff166370a08231306040518263ffffffff1660e01b8152600401808273ffffffffffffffffffffffffffffffffffffffff16815260200191505060206040518083038186803b1580156104f757600080fd5b505afa15801561050b573d6000803e3d6000fd5b505050506040513d602081101561052157600080fd5b810190808051906020019092919050505090508173ffffffffffffffffffffffffffffffffffffffff1663a9059cbb60008054906101000a900473ffffffffffffffffffffffffffffffffffffffff16836040518363ffffffff1660e01b8152600401808373ffffffffffffffffffffffffffffffffffffffff16815260200182815260200192505050602060405180830381600087803b1580156105c557600080fd5b505af11580156105d9573d6000803e3d6000fd5b505050506040513d60208110156105ef57600080fd5b8101908080519060200190929190505050507fa04c965e7d289704527a948915777d68bb4530fb4b08aa935fb958c0b7901ab9833383604051808473ffffffffffffffffffffffffffffffffffffffff1681526020018373ffffffffffffffffffffffffffffffffffffffff168152602001828152602001935050505060405180910390a1505050565b60008054906101000a900473ffffffffffffffffffffffffffffffffffffffff1681565b6002548156fea2646970667358221220f67c2262a215f4ec154227d862024ceae6a736e09b8dbf962546c88a445f596264736f6c63430007040033a2646970667358221220a9f0cf307e165e6452d9ef904fc7f8f30efaf407e6b7a869ed40023e71775d1464736f6c63430007040033",
  "immutableReferences": {},
  "source": "// SPDX-License-Identifier: MIT\npragma solidity >=0.6.0 <=0.7.4;\n\nimport \"./Capsule.sol\";\n\ncontract CapsuleFactory {\n    mapping(address => Capsule[]) sentCapsules;\n    mapping(address => Capsule[]) receivedCapsules;\n\n    function getSentCapsules(address _grantor) public view returns(Capsule[] memory) {\n        return sentCapsules[_grantor];\n    }\n\n    function getReceivedCapsules(address _beneficiary) public view returns(Capsule[] memory) {\n        return receivedCapsules[_beneficiary];\n    }\n\n    function newCapsule(address _beneficiary, uint256 _distributionDate) payable public returns(Capsule capsule) {\n        capsule = new Capsule(msg.sender, _beneficiary, _distributionDate);\n        sentCapsules[msg.sender].push(capsule);\n        receivedCapsules[_beneficiary].push(capsule);\n        address(capsule).transfer(msg.value);\n        emit Created(capsule, msg.sender, _beneficiary, block.timestamp, _distributionDate, msg.value);\n    }\n\n    fallback () external {\n        revert();\n    }\n\n    event Created(Capsule capsule, address grantor, address beneficiary, uint256 createdDate, uint256 distributionDate, uint256 amount);\n}",
  "sourcePath": "/Users/chasemanning/Documents/repositories/crypto-capsule/contracts/CapsuleFactory.sol",
  "compiler": {
    "name": "solc",
    "version": "0.7.4+commit.3f05b770.Emscripten.clang"
  },
  "schemaVersion": "3.3.3",
  "updatedAt": "2021-02-08T08:09:26.791Z",
  "networkType": "ethereum",
  "devdoc": {
    "kind": "dev",
    "methods": {},
    "version": 1
  },
  "userdoc": {
    "kind": "user",
    "methods": {},
    "version": 1
  }
}